S01A000065787465726E616C496E74657272757074732E7372656367
S113000033C000004CC000003FC000003DC00000F1
S11300103BC0000039C0000037C0000035C00000FC
S113002033C0000031C000002FC000002DC000000C
S11300302BC0000029C0000027C0000025C000001C
S113004023C0000021C000001FC000001DC000002C
S11300501BC0000019C0000017C0000015C000003C
S113006013C0000011C0000011241FBECFEFD8E060
S1130070DEBFCDBF21E0A0E0B1E001C01D92A230FF
S1130080B207E1F74ED05DC0BBCFE89AE9E6F0E0F5
S113009080818260808378940895529808951F9295
S11300A00F920FB60F9211248F939F9381E090E0EB
S11300B090930101809300019F918F910F900FBE47
S11300C00F901F9018954AB121E030E0F90102C069
S11300D0EE0FFF1F8A95E2F7CF012E2F842B8AB9EA
S11300E06623F1F090E03E2F30958BB1822B8BB9D3
S11300F0FFEF41EE54E0F15040405040E1F700C0C2
S113010000008BB183238BB98FEFE1EEF4E08150D3
S1130110E040F040E1F700C000009F5F6913E5CFC5
S11301200895BBDFB2DF8091000190910101019736
S1130130D1F762E087E0C7DF10920101109200015D
S1090140F2CFF894FFCF9A
S9030000FC
